{
    "contractName": "HelloWorld",
    "abi": [
        {
            "inputs": [],
            "name": "greeting",
            "outputs": [
                {
                    "internalType": "string",
                    "name": "",
                    "type": "string"
                }
            ],
            "stateMutability": "view",
            "type": "function"
        }
    ],
    "bytecode": "60c0604052600c60808190526b48656c6c6f20576f726c642160a01b60a090815261002d9160009190610040565b5034801561003a57600080fd5b50610113565b82805461004c906100d9565b90600052602060002090601f01602090048101928261006e57600085556100b4565b82601f1061008757805160ff19168380011785556100b4565b828001600101855582156100b4579182015b828111156100b4578251825591602001919060010190610099565b506100c09291506100c4565b5090565b5b808211156100c057600081556001016100c5565b600181811c908216806100ed57607f821691505b60208210810361010d57634e487b7160e01b600052602260045260246000fd5b50919050565b6101a1806101226000396000f3fe608060405234801561001057600080fd5b506004361061002b5760003560e01c8063ef690cc014610030575b600080fd5b61003861004e565b60405161004591906100dc565b60405180910390f35b6000805461005b90610131565b80601f016020809104026020016040519081016040528092919081815260200182805461008790610131565b80156100d45780601f106100a9576101008083540402835291602001916100d4565b820191906000526020600020905b8154815290600101906020018083116100b757829003601f168201915b505050505081565b600060208083528351808285015260005b81811015610109578581018301518582016040015282016100ed565b8181111561011b576000604083870101525b50601f01601f1916929092016040019392505050565b600181811c9082168061014557607f821691505b60208210810361016557634e487b7160e01b600052602260045260246000fd5b5091905056fea264697066735822122082acc445c327d472e0b05b4307b1e4c9375585646457a29d8bf2acbf2c8f705a64736f6c634300080e0033",
    "sourcePath": "c:/Users/Kazim/Documents/GitHub/Cadena/Smart Contracts/HelloWorld.sol",
    "compiler": {
        "name": "solc",
        "version": "0.8.14+commit.80d49f37"
    },
    "functionHashes": {
        "greeting()": "ef690cc0"
    },
    "gasEstimates": {
        "creation": {
            "codeDepositCost": "83400",
            "executionCost": "infinite",
            "totalCost": "infinite"
        },
        "external": {
            "greeting()": "infinite"
        }
    }
}